:020000040800F2
:10000000A0080020010100087F110008950E0008DB
:100010007D1100086D01000899150008000000001E
:10002000000000000000000000000000A114000813
:10003000DD01000800000000B111000835150008BE
:100040001B0100081B0100081B0100081B01000820
:100050001B0100081B0100081B0100081B01000810
:100060001B0100081B0100081B0100081B01000800
:100070001B0100081B0100081B0100081B010008F0
:100080001B0100081B0100081B0100081B010008E0
:100090001B0100081B0100081B0100081B010008D0
:1000A0001B0100081B0100081B0100081B010008C0
:1000B0001B0100081B0100081B0100081B010008B0
:1000C0001B0100081B0100081B0100081B010008A0
:1000D0001B0100081B0100081B0100081B01000890
:1000E0001B0100081B0100081B010008DFF80CD0F1
:1000F00000F02AF800480047D9150008A0080020A1
:100100000648804706480047FEE7FEE7FEE7FEE7B1
:10011000FEE7FEE7FEE7FEE7FEE7FEE797150008CD
:10012000ED000008D2B201E000F8012B491EFBD21D
:1001300070470022F6E710B513460A4604461946F2
:10014000FFF7F0FF204610BD064C074D06E0E068C3
:1001500040F0010394E8070098471034AC42F6D30E
:10016000FFF7C8FFFC2900081C2A0008FEE7000072
:1001700070B5184D4FF48071284600F033F9164CD5
:1001800080B9C82000F02CF82078401CC0B2207044
:100190006178884200D32170207800F0F1FF207848
:1001A00001F080F94FF40071284600F01BF9002897
:1001B0000ED1C82000F014F8207808B1401E20703D
:1001C000C0B200F0DDFF2078BDE8704001F06AB9F0
:1001D00070BD0000000C01400E00002070470000C0
:1001E00070B5044600F008F90546601C02D00448CA
:1001F0000078044400F000F9401BA042FAD370BD1F
:10020000380000202DE9F84FDFF8B891002409F1FB
:10021000040A0AF1040B23460F270BF1040EC9E070
:100220000125A5402A40AA427DD1674ED1F804C0DD
:10023000ACEB0608B44532D014DCBCF1030F3AD065
:1002400009DCBCF1000F2AD0BCF1010F1CD0BCF1BD
:10025000020F31D11DE0BCF1110F17D0BCF1120F0C
:100260002AD119E0B8F5881F19D006DCB8F5803F0F
:1002700015D0B8F5801F1FD111E0B8F5001F0ED0C2
:10028000B8F5041F18D10AE0CB6815E0CB681B1D38
:1002900012E0CB6808330FE0CB680C330CE08B68BE
:1002A0002BB1012B4FF0080303D0456104E0042378
:1002B00002E0056100E00023FF2A01D8064601E0C4
:1002C00000F104064FEA840501D9A5F12005D6F80E
:1002D000008007FA05FC28EA0C0803FA05F548EA4D
:1002E0000508C6F800804D68ED0062D5374DAE694F
:1002F00046F00106AE61AD6924F0030605F0010584
:100300000095334D06EB050CDCF80850A607360FB8
:1003100007FA06F825EA0805DFF8B880404503D15A
:100320004FF0000817E044E0DFF8AC80404502D110
:100330004FF001080FE0DFF8A480404502D14FF0F4
:10034000020808E0DFF89880404502D14FF003082A
:1003500001E04FF0040808FA06F848EA0508CCF86E
:1003600008804D68D9F80060ED034D4601D516436D
:1003700000E096432E604D68DAF80060AD03554604
:1003800001D5164300E096432E604D68DBF800600F
:10039000ED025D4601D5164300E096432E604D68A0
:1003A000DEF80060AD02754601D5164300E09643C5
:1003B0002E60641C0D682A46E5407FF431AFBDE82D
:1003C000F88F0000000401400000111000100240EE
:1003D0000000014000080140000C014000100140F5
:1003E000001401408068084000D0012070470AB125
:1003F000016170470904FBE701488068704700000D
:100400003800002070B5040025D094F83D00002588
:1004100020B984F83C50204600F004FA242084F8E7
:100420003D002068016821F0010101602068016839
:1004300041F4004101602068016821F4004101603D
:1004400000F03EFB4D4A6168914201D84C4900E002
:100450004C49884201D2012070BD4B492368B0FB52
:10046000F1F15E6826F03F060E435E6063689342DA
:1004700006D94FF4967359434FF47A73B1FBF3F1F5
:100480002368491C1E6A26F03F06314319626168E1
:10049000914210D84900401EB0FBF1F2521CC2F349
:1004A0000B02042A01D2042022E0B0FBF1F0401C30
:1004B000C0F30B001CE0A268F2B301EBC10303EB35
:1004C0000116431EB3FBF6F35B1C43F480431B058C
:1004D00049D092B301EBC10202EB0111401EB0FB07
:1004E000F1F0401CC0F30B0040F4804040F40040A9
:1004F0002168CA694CF6FF739A431043C861D4E976
:10050000071001432068026822F0C0021143016015
:10051000D4E9030101432068826848F2FF339A431B
:1005200011438160D4E9050108432168CA6822F0BB
:10053000FF021043C86001E00EE016E02068016889
:1005400041F0010101602564202084F83D0025630D
:1005500084F83E50002070BD01EB4106431EB3FB02
:10056000F6F35B1CB3E70120C2E701EB4101401E3B
:10057000B0FBF1F0401CC0F30B00B7E7A086010010
:1005800080841E0000093D0040420F002DE9FF4F0E
:1005900081B089460446FFF72FFF054694F83D00D9
:1005A0004FF0010820287DD119230122504920460F
:1005B000009500F0FBFC002874D194F83C00012861
:1005C00070D0012084F83C0020680168C90703D17D
:1005D000016841F0010101602068016821F40061B7
:1005E0000160242084F83D00002626644148E06232
:1005F0004FF0011B20272068016841F480710160E1
:100600000095002259462046049B00F0CFFC50B1D3
:1006100020680068C00502D54FF4007020640320F4
:1006200005B0BDE8F08F216809F0FE000861FFF712
:10063000E3FE2168054648694969C0F34000C1F3FB
:1006400080214FF0A00A0FE0FFF7D6FE411B04986F
:10065000814200D808B984F83DA0216848694969F9
:10066000C0F34000C1F3802194F83D20A02A02D0BD
:1006700008B90029E8D084F83D7020684169C94371
:10068000890716D4016841F400710160206841694E
:1006900080691923012216492046009500F086FC46
:1006A000B8B900E021E084F83D7084F83C60002097
:1006B000B6E7016841F40071016021686FF4806061
:1006C0004861192301220A492046009500F06EFC7A
:1006D00008B10120A4E7039808F1010880458AD3F6
:1006E00084F83D7084F83C60F3E7022098E700004E
:1006F000020010000000FFFF2DE9F84F1F46904652
:100700008A460446DDF82890FFF776FE054694F801
:100710003D0020287FD11923012240492046009521
:1007200000F044FC002876D194F83C00012872D0F7
:10073000012084F83C0020680168C90703D10168E2
:1007400041F0010101602068016821F4006101604D
:10075000212084F83D00102084F83E000026266405
:10076000C4F824806785608D20852D48E0622B4683
:100770004A465146204600F0A5FB90B920684169E1
:100780008069009036E02A464946204600F08DFCFC
:1007900050B1206C042804D12068016841F4007134
:1007A00001600120BDE8F88F606A21680078086167
:1007B000606A401C6062618D491E6185218D491E01
:1007C00089B2218522685369DB435B070BD451B1A1
:1007D00000781061606A401C6062608D401E608518
:1007E000208D401E20852A464946204600F0B8FB51
:1007F0000028CED1208D0028C5D154F83D0B0168CA
:1008000041F400710160202004F81E09E677667744
:100810000020C7E7FFE70220C4E700000200100045
:100820000000FFFF10B586B00021009101910291F8
:10083000039100680F4988421AD10F4CA06940F01B
:100840000800A061A069694600F008000490C0207B
:10085000009012200190032003900848FFF7D2FC7B
:10086000E06940F40010E061E06900F400100490D9
:1008700006B010BD0054004000100240000C0140C2
:100880000248816802781144816070473800002076
:10089000074810B5016841F010010160032000F025
:1008A00067F8002000F006F800F024F8002010BDE2
:1008B0000020024070B50D4D04464FF47A7128783F
:1008C000B1FBF0F00A490968B1FBF0F000F0CEFA94
:1008D00048B9102C07D200222146501E00F028F8FB
:1008E00000206C6070BD012070BD00003800002049
:1008F000440000200C4808B5816941F00101816184
:10090000816901F001010091C16941F08051C1612B
:10091000C06900F0805000900448416821F0E06117
:1009200041F00071416008BD00100240000001402C
:10093000F0B40E4B1B680C46C3F30223C3F107054A
:10094000042D00D90425191D072901D2002300E038
:10095000DB1E012606FA05F1491E214099409E4002
:10096000761E16403143F0BC00F017BE0CED00E0DF
:10097000064900F0070208684FF6FF03184040EAF6
:100980000220034A10430860704700000CED00E0AD
:100990000000FA052DE9F0470F46050061D0434EEF
:1009A000306800F00700B84209D2306820F0070034
:1009B00038433060306800F00700B84251D12868F1
:1009C0003B4C810712D5400703D5606840F4E060D6
:1009D00060602878000703D5606840F4605060606C
:1009E0006068A96820F0F000084360602878C007BC
:1009F00028D06868012810D02168022810D0890703
:100A000000292EDA616821F0030101436160FFF7DC
:100A1000F3FC804641F288390DE021688903EFE755
:100A20008901EDE7FFF7E8FCA0EB0801494502D991
:100A30000320BDE8F0876068696800F00C00B0EB47
:100A4000810FEFD1306800F00700B8420BD9306851
:100A500020F0070038433060306800F00700B842EB
:100A600001D00120E5E72878400705D56068E968EE
:100A700020F4E060084360602878000706D56068CD
:100A8000296920F4605040EAC100606000F028F855
:100A90006168084AC1F30311515CC8400649086007
:100AA00006480068FFF706FF0020C2E7002002406A
:100AB00000100240E4290008440000203C0000200F
:100AC0000448054900684968044AC1F30221515CA1
:100AD000C84070474400002000100240F42900087C
:100AE00012A185B00FC98DE80F0014A0144A006848
:100AF00004905168134801F00C03042B10D0082B0C
:100B00000ED1C1F38343C9031DF803000AD5516810
:100B100004AAC1F34041515C0A4A5043B0FBF1F0D2
:100B200005B0704708494843FAE70000020304058E
:100B3000060708090A0B0C0D0E0F10100102000029
:100B40000010024000127A0000093D002DE9F84F24
:100B5000040070D02078C04DC00749D06868C0F349
:100B60008100012807D06868C0F38100022809D1FC
:100B70006868C00306D52868800339D560680028F6
:100B8000E7D035E06068B0F5803F0BD010B1B0F52C
:100B9000A02F11D0286820F480302860286820F425
:100BA000802002E0286840F480302860606890B1BE
:100BB000FFF722FC06460AE0286840F480202860FF
:100BC000F0E700BFFFF718FC801B642873D8286883
:100BD0008003F7D50CE0FFF70FFC064605E000BFE9
:100BE000FFF70AFC801B6428F0D828688003F7D43C
:100BF00020789A4E80074FF001094FF0000839D550
:100C0000686810F00C0F07D06868C0F381000228F4
:100C100009D16868C00306D42868800714D5206904
:100C2000012808D110E02069B0B1C6F80090FFF7A4
:100C3000E3FB074605E00AE1FFF7DEFBC01B0228E5
:100C4000C4D828688007F7D52868616920F0F800C3
:100C500040EAC10028600DE0C6F80080FFF7CCFB39
:100C6000074604E0FFF7C8FBC01B022823D828680A
:100C70008007F7D4207800072CD57948A169D9B12D
:100C8000C0F80090FFF7B8FB074604E0FFF7B4FB9D
:100C9000C01B02280FD8686A8007F7D571484FF447
:100CA000FA510068B0FBF1F0009000BF0098411EBF
:100CB0000091FAD20EE080E0C0F80080FFF79CFBC4
:100CC000074604E0FFF798FBC01B022875D8686A46
:100CD0008007F7D42078400760D5E8690027C00076
:100CE00008D4E86940F08050E861E869012700F025
:100CF000805000905C480168C90513D401688346A0
:100D000041F480710160FFF777FB824606E000BF87
:100D1000FFF772FBA0EB0A0064284ED8DBF8000056
:100D2000C005F5D5E06801280AD008B1052813D020
:100D3000286A20F001002862286A20F0040002E0FE
:100D4000286A40F001002862E06841F2883B98B1CF
:100D5000FFF752FB82460BE0286A40F0040028624D
:100D6000EEE700BFFFF748FBA0EB0A0159455AD850
:100D7000286A8007F6D50CE0FFF73EFB824605E0C7
:100D8000FFF73AFBA0EB0A0159454CD8286A8007C7
:100D9000F6D41FB1E86920F08050E861E06988B3BB
:100DA0006968C1F38101022944D00228C6F8608035
:100DB00004D0FFF721FB044638E034E0FFF71CFBCA
:100DC000074604E0FFF718FBC01B02282BD8286851
:100DD0008001F7D4206AB0F5803F05D16868A1682A
:100DE00020F4003008436860D4E9080108436968CA
:100DF00021F4741108436860C6F86090FFF7FCFAAC
:100E0000044606E025E000BFFFF7F6FA001B0228C3
:100E100009D828688001F7D51BE000BFFFF7ECFA7E
:100E2000001B022802D90320BDE8F88F2868800142
:100E3000F4D40EE00128F7D06868226A00F480310B
:100E4000914204D1616A00F47010884201D00120FF
:100E5000EAE70020E8E700000010024000004242FC
:100E600080044242440000200070004010B5401E43
:100E7000B0F1807F01D3012010BD4FF0E02460610C
:100E80000F21601700F089FB0020A061072020617E
:100E9000002010BDFEE701684A69D24352050FD415
:100EA0006FF480624A61002140F8301F20224273B3
:100EB0008173026942F004020261017301207047EC
:100EC00000207047F8B50446C06A1E460D46174616
:100ED000082807D0012805D010F5803F02D0206BEC
:100EE000122804D12068016841F480710160134622
:100EF00000224FF001112046009600F057F840B153
:100F000020680068C00502D54FF4007020640320FB
:100F1000F8BD2069B0F5804F0ED00620216800EAA8
:100F2000D51040F0F000086133463A460B492046A0
:100F300000F070F878B902E005F0FE0000E0E8B2D9
:100F400021680861054933463A46891F204600F06A
:100F500061F80028DCD00120F8BD00000800010085
:100F600070B516460D4604460DE02046FFF793FF88
:100F700008B1012070BD681C05D0FFF73DFA801B49
:100F8000A84207D835B120684069C0434007ECD477
:100F9000002070BD002044F8300F20216173A07341
:100FA000216941F0200121612073E2E72DE9F0473A
:100FB0001E4690460D460446C1F30747DDF82090D3
:100FC00008E0701C06D0FFF717FAA0EB0900B0424A
:100FD0000FD876B12068012F18D0806925EA00006B
:100FE0000004000C14D000214145EAD00020BDE8E7
:100FF000F087002044F8300F20216173A07321692D
:1010000041F02001216120730120F0E74069E5E70C
:101010000121E9E72DE9F0479A4691460E4604463C
:1010200000254FF02008C1F3074725E020684069FC
:10103000C043400514D42068016841F40071016088
:1010400021686FF480604861256384F83D8084F8EE
:101050003E50206C40F00400206484F83C501FE0B7
:10106000B9F1FF3F08D0FFF7C7F9A0EB0A014945E6
:101070000CD8B9F1000F09D02068012F13D0806976
:1010800026EA00000004000C0BD0CFE744F8305FE4
:1010900084F80D80A573206940F02000206125733D
:1010A0000120BDE8F0874069EAE770B516460D46B5
:1010B00004460DE02046FFF7EEFE08B1012070BDAA
:1010C000681C05D0FFF798F9801BA84207D835B1F6
:1010D00020684069C0430006ECD4002070BD0020A9
:1010E00044F8300F20216173A073216941F0200181
:1010F00021612073E2E7000070B586B000241C482F
:101100000094019402940394816941F0200181616B
:10111000816901F020010491816941F0040181613C
:10112000816901F004010491816941F00801816144
:101130008069104E00F0080004900022072130461C
:10114000FFF755F907200125CDE900050220CDE97B
:10115000024069463046FFF755F84FF440708DE87D
:10116000310069460448FFF74DF806B070BD000035
:101170000010024000080140000C0140FEE7FEE7BD
:1011800010B5044600F015F81421282000F046F8A8
:10119000054904EB840008440122044900F048F9A1
:1011A000BDE8104000F058B91000002000000020F9
:1011B000704710B5002000F025F8BDE8104000F0A1
:1011C0004BB9000070B5802813D2402911D20B4BC7
:1011D000012401F007051E79AC40094BC90800EB5A
:1011E000C1100EB132B101E0012A03D0195CA14354
:1011F000195470BD195C2143FAE700000800002073
:101200004800002028B1FF224FF480610248FEF719
:1012100089BF0022F8E7000048000020014A108042
:10122000518070470800002010B500F003FA44F622
:101230002063012278215448FFF7A8F908B1002063
:1012400010BD40F6C210401EFDD1AE220021782014
:1012500000F0F6F920220021782000F0F1F91022A8
:101260000021782000F0ECF9B0220021782000F075
:10127000E7F9C8220021782000F0E2F900221146A7
:10128000782000F0DDF910220021782000F0D8F954
:1012900040220021782000F0D3F98122002178201B
:1012A00000F0CEF9FF220021782000F0C9F9A12238
:1012B0000021782000F0C4F9A6220021782000F057
:1012C000BFF9A8220021782000F0BAF93F220021BE
:1012D000782000F0B5F9A4220021782000F0B0F9C0
:1012E000D3220021782000F0ABF9002211467820AB
:1012F00000F0A6F9D5220021782000F0A1F9F02213
:101300000021782000F09CF9D9220021782000F0FB
:1013100097F922220021782000F092F9DA220021A8
:10132000782000F08DF912220021782000F088F951
:10133000DB220021782000F083F920220021782090
:1013400000F07EF98D220021782000F079F9142236
:101350000021782000F074F9AF220021782000F0FD
:101360006FF92E220021782000F06AF90020FFF7A3
:1013700049FF00F071F805480021018041800121FA
:101380004171084610BD00004804002008000020FC
:101390002DE9F047814625480D46924601882A7876
:1013A0001144802905D28046408869780844402845
:1013B00002D30020BDE8F08700262AE0A9F1200131
:1013C00001FB00606A68002432F810701DE000BF65
:1013D00007FA04F0000409D5B8F80210B8F80000C4
:1013E0003144204489B280B252460BE0BAF1000F7A
:1013F0001AD00022B8F80210B8F800003144204496
:1014000089B280B2FFF7DEFE641C2878A042DFD8E4
:10141000761C6878B042D1D8B8F800102A784846CF
:101420001144A8F80010C5E70122E3E708000020F6
:1014300070B515460E46044609E02A463146FFF7C8
:10144000A7FF2178884201D0C8B270BD641C207803
:101450000028F2D1C0B270BD70B5104D002400BF9D
:1014600004F1B000C2B20021782000F0E9F80022B7
:101470001146782000F0E4F810220021782000F0D6
:10148000DFF805EBC41280234021782000F0E8F853
:10149000641CE4B2082CE3D370BD000048000020B7
:1014A0007047000010B5224CF0B101281ED0022870
:1014B00028D0032828D004282DD005282DD0062890
:1014C00032D0072832D1012201212046FEF78FFFBA
:1014D000012202212046FEF78AFF01222046BDE8B4
:1014E00010400421FEF783BF002200E00122012109
:1014F0002046FEF77CFF002202212046FEF777FF00
:101500000022EBE7002200E0012201212046FEF745
:101510006EFF0122F0E7002200E0012201212046B7
:10152000FEF765FF0022D4E70022CDE710BD0000E2
:1015300000080140FFF7A4B930B58FB028216846F4
:10154000FEF7F7FD14210AA8FEF7F3FD01210804B8
:10155000CDE900100024029402250491CDE9075042
:101560004FF4E01009906846FFF7F0FA08B172B640
:10157000FEE70F20CDE90A054FF48060CDE90C406D
:1015800002210AA80E94FFF705FA002801D072B6CE
:10159000FEE70FB030BD7047FEE70907090E0028CF
:1015A00004DB00F1E02080F80014704700F00F0029
:1015B00000F1E02080F8141D704702E008C8121FF7
:1015C00008C1002AFAD170477047002001E001C12C
:1015D000121F002AFBD17047FFF75AF9FFF7ACFF43
:1015E000FFF78AFD10480F494FF4804201600F4910
:1015F000416000218160C0E9031241618161C161E4
:101600000162FEF7FFFE08B172B6FEE7FFF70CFEBF
:10161000074C2078FFF7B4FD2078FFF743FFFEF773
:10162000A7FDF9E70054004048040020801A060096
:101630000E0000200148401EFDD1704790D00300ED
:101640001CB502238DF804100A2100918DF80520A5
:10165000014601AA0148FFF74FF81CBD48040020CD
:1016600070B5C2B000248DF8041001A904E0155D26
:101670000E19641C7570E4B29C42F8D30A210091E3
:101680005B1C01469BB201AA0248FFF735F842B045
:1016900070BD0000480400200000000000000000B1
:1016A000000000000000000000000000000000003A
:1016B000000000000000000000000000000000002A
:1016C000000000000000000000000000E003E00354
:1016D000E003E003E003E003E003E003C003C00332
:1016E000C001C001C001C001C00100000000000035
:1016F000E003E003E0030000000000000000000041
:101700003C1E3C1E3C1E3C1E3C1E3C1E3C1E000063
:1017100000000000000000000000000000000000C9
:1017200000000000000000000000000000000000B9
:1017300000000000CE01CE03DE039E039C039C0745
:10174000FF3FFF7F3807380F780F780F780EFFFFC5
:10175000FFFFF01EF01CE01CE03CE03DE039000023
:101760000000000000000000FC03FE0FEE1FE01E62
:10177000E01EE01EE01EE01FE00FE007F003FC01AA
:10178000FE01FE01FE01FE01FE01FE01FE3DFC3FE9
:10179000F00FE001E001000000000000033E07F749
:1017A0008FE78EE79EE3BCE3B8E7F8E7F0F7E03FAA
:1017B000C001FF03FF07F307F30FF31EF33CF338F9
:1017C000F3787FF03FE00000000000000000000020
:1017D000E007F80F780F781F781F781F780FF00F49
:1017E000E00F801FC37FC3FBE7F3F7F1F7F0FFF0D3
:1017F0007FF03EF87F7CFF3FEF1F000000000000FD
:1018000000000000E003E003E003E003E003C003A6
:10181000C001000000000000000000000000000007
:1018200000000000000000000000000000000000B8
:1018300000000000000000003F007C00F001E0011B
:10184000C003C00780078007800F000F000F000F44
:10185000000F000F000F800F80078007C007C00334
:10186000E001F0017C003F000F000000007E001F3F
:10187000C007C003E001F001F000F000F8007800BC
:1018800078007800780078007800F800F000F00028
:10189000F001E001C003C007001F007E00780000D7
:1018A000E003C003C001CE39FF3F7F3F2003700338
:1018B000F807780F3C1F3806000000000000000009
:1018C0000000000000000000000000000000000018
:1018D0000000000000000000000000000000000008
:1018E000C001C001C001C001C001C001C001FFFFB3
:1018F000FFFFC001C001C001C001C001C001000064
:1019000000000000000000000000000000000000D7
:1019100000000000000000000000000000000000C7
:1019200000000000000000000000E003E003E0030E
:10193000E003E001E001E001C001800300000000DD
:101940000000000000000000000000000000000097
:101950000000FE3FFE3F000000000000000000000D
:101960000000000000000000000000000000000077
:101970000000000000000000000000000000000067
:101980000000000000000000000000000000000057
:101990000000E003E003E003E003000000000000BB
:1019A000000000000F000F001E001E003C003C0065
:1019B00078007800F000F000E001E001C003C0030F
:1019C00080078007000F000F001E001E003C003C37
:1019D0000078007800F00000F007F80F7C1F3E3E12
:1019E0001E3C1F7C1F7C0F780F780F780F780F78C4
:1019F0000F780F781F7C1F7C1E3C3E3E7C1FF80F2B
:101A0000F00700000000000000000000F000F007F8
:101A1000F03FF03FF001F001F001F001F001F001C2
:101A2000F001F001F001F001F001F001F001F0012E
:101A3000F001FF3FFF3F0000000000000000000039
:101A4000E00FF83F7C3C3C003E003E003E003C0086
:101A50003C007C00F800F001E003C0078007000FA5
:101A6000001E003E003CFE3FFE3F00000000000064
:101A700000000000F00FF81F7C1C3E003E003E00FE
:101A80003C003C00F800F00FF80F7C003E001E0008
:101A90001E001E001E003E007C1CF81FE01F000000
:101AA00000000000000000007800F800F800F801D5
:101AB000F803F807F807780F781E781E783C7878D6
:101AC0007878FFFFFFFF78007800780078007800D2
:101AD000780000000000000000000000FC1FFC1F58
:101AE000FC1F001E001E001E001E001EE01FF81F2F
:101AF000FC007C003E003E001E003E003E003C001C
:101B00007C1CF81FE01F0000000000000000000027
:101B1000FC01FE078E0F001F001E003E003C003C33
:101B2000F83DFC3F3E7F1F7E0F3C0F3C0F3C0F3CBF
:101B30000F3E1F1E3E1FFC0FF003000000000000C0
:101B400000000000FF3FFF3FFF3F0F001E001E0090
:101B50003C0038007800F000F000E001E001C00334
:101B6000C0038007800F800F000F001F001F0000C0
:101B70000000000000000000F807FC0F3E1F1E1EC2
:101B80001E3E1E3E1E1E3C1FF80FF007F80FFC1EE7
:101B90003E3E1F3C1F7C0F7C0F7C1F3C3E3FFC1FCA
:101BA000F00700000000000000000000F007F80F40
:101BB0007C1E3E3C1E3C1F7C1F7C1F7C1F7C1F3CF0
:101BC0003F3EFF1FEF071F001E001E003E003C00AF
:101BD000F838F03FE01F00000000000000000000A7
:101BE000000000000000000000000000E003E0032F
:101BF000E003E0030000000000000000000000001F
:101C00000000E003E003E003E00300000000000048
:101C100000000000000000000000000000000000C4
:101C2000E003E003E003E003000000000000000028
:101C3000000000000000E003E003E003E003E00137
:101C4000E001E001C003800300000000000000008C
:101C50000000000003000F003F00FC00F003C00F75
:101C6000003F00FE003FC00FF003FC003F000F00EC
:101C70000300000000000000000000000000000061
:101C80000000000000000000000000000000000054
:101C9000FFFFFFFF000000000000FFFFFFFF00004C
:101CA0000000000000000000000000000000000034
:101CB00000000000000000000000000000E000F84C
:101CC000007E801FE007F8017E001F007E00F80103
:101CD000E007801F007E00F800E000000000000028
:101CE00000000000F01FFC3F3E381F381F381E0068
:101CF0001E003C007800F000E001C003C003C007F4
:101D0000C007000000000000C007C007C0070000B7
:101D10000000000000000000F803FE0F1E1F0F3E31
:101D20007F3CFF78EF79C773C7F38FF38FF38FF39F
:101D30009FF39FF3FF73FF7BF779003C1C1FFC0FA1
:101D4000F803000000000000000000000000000098
:101D50000000E003E003F007F007F007780F780FCA
:101D60007C0E3C1E3C1E3E3CFE3FFF3F1F780F7822
:101D70000FF007F007F00000000000000000000076
:101D8000000000000000F83FFC3F3E3C1E3C1E3CB3
:101D90001E3C3E3C7C3CF03FF83F7E3C1F3C1F3CE1
:101DA0000F3C0F3C1F3CFE3FF83F000000000000CE
:101DB00000000000000000000000FF01FF07871F77
:101DC000003E003C007C00780078007800780078C5
:101DD000007C007C003E003F831FFF07FF010000E6
:101DE0000000000000000000000000000000F07F84
:101DF000FC7F7E781F781F780F780F780F780F7828
:101E00000F780F780F780F781F781E787E78F87F1C
:101E1000E07F000000000000000000000000000063
:101E20000000FF3FFF3F003E003E003E003E003E00
:101E3000003EFE3FFE3F003E003E003E003E003EB4
:101E4000003EFF3FFF3F00000000000000000000D8
:101E5000000000000000FF1FFF1F001E001E001EEC
:101E6000001E001E001EFF1FFF1F001E001E001E82
:101E7000001E001E001E001E001E000000000000CC
:101E800000000000000000000000FE03FF0F871F9D
:101E9000003E007C007C007800F800F87FF87FF8B6
:101EA0000F780F7C0F7C0F3E8F1FFF0FFE0300008B
:101EB00000000000000000000000000000001F7C87
:101EC0001F7C1F7C1F7C1F7C1F7C1F7C1F7CFF7F57
:101ED000FF7F1F7C1F7C1F7C1F7C1F7C1F7C1F7C47
:101EE0001F7C000000000000000000000000000057
:101EF0000000FF3FFF3FE003E003E003E003E003F7
:101F0000E003E003E003E003E003E003E003E003B9
:101F1000E003FF3FFF3F0000000000000000000062
:101F2000000000000000FC1FFC1F7C007C007C0007
:101F30007C007C007C007C007C007C007C007C00C1
:101F400078007800F838F03FC03F00000000000043
:101F5000000000000000000000001F3C1E3C3C3C54
:101F6000783CF03CE03DE03FC03F803FC03FE03F79
:101F7000F03DF03C783C7C3C3E3C1F3C0F3C00007C
:101F80000000000000000000000000000000003E13
:101F9000003E003E003E003E003E003E003E003E51
:101FA000003E003E003E003E003E003E003EFF3F41
:101FB000FF3F0000000000000000000000000000E3
:101FC00000001FF81FFC1FFC3FFE3FFE3FFE7FFF8F
:101FD00077FF77FFF7F7E7F7E7F3E7F3C7F307F0E4
:101FE00007F007F007F0000000000000000000000C
:101FF0000000000000000F7C0F7C0F7E0F7F0F7F22
:102000008F7F8F7FCF7FEF7BEF79FF79FF78FF782E
:102010007F783F783F781F781F780000000000002D
:1020200000000000000000000000F007FC1F3E3E22
:102030001F7C0F780F780FF80FF80FF80FF80FF8D4
:102040000FF80F780F781F7C3E3EFC1FF007000052
:102050000000000000000000000000000000FC3F45
:10206000FF3F1F3E0F3E0F3E0F3E0F3E1F3E3F3EC7
:10207000FC3FF03F003E003E003E003E003E003E82
:10208000003E000000000000000000000000000012
:102090000000F007FC1F3E3E1F7C0F780F780FF802
:1020A0000FF80FF80FF80FF80FF80F780F781F7C64
:1020B0003E3EFC1FF8077C003F000F0003000000BD
:1020C000000000000000F03FFC3F7E3C3E3C1E3C18
:1020D0001E3C3E3C3C3CFC3CF03FE03FF03DF83CCD
:1020E0007C3C3E3C1E3C1F3C0F3C000000000000BE
:1020F00000000000000000000000FC07FE1F0E3E74
:10210000003C003C003C003EC01FF80FFE037F0077
:102110001F000F000F001F203E3CFC3FF01F00007F
:102120000000000000000000000000000000FFFFB1
:10213000FFFFE003E003E003E003E003E003E0036C
:10214000E003E003E003E003E003E003E003E00377
:10215000E00300000000000000000000000000009C
:1021600000000F7C0F7C0F7C0F7C0F7C0F7C0F7CA2
:102170000F7C0F7C0F7C0F7C0F7C0F7C1E3C1E3C69
:102180003E3EFC1FF00700000000000000000000C1
:1021900000000000000007F007F007F80F780F7C40
:1021A0001E3C1E3C1E3E3C1E3C1F781F780FF80F45
:1021B000F007F007F007E003E00300000000000074
:1021C0000000000000000000000003E003F003F046
:1021D00007F0E7F3E7F3E7F3E773F77BF77FFF7FBA
:1021E0007F7F7F7F7E7F7E3F3E3E3E3E3E3E0000C5
:1021F000000000000000000000000000000007F8E0
:102200000F7C1E3E3E3E3C1FF80FF007E007E00348
:10221000E003F007F80F7C0F7C1E3E3C1F780F7820
:102220000FF00000000000000000000000000000AF
:10223000000007F807780F7C1E3C1E3E3C1F780FFD
:10224000F80FF007E003E003E003E003E003E0033E
:10225000E003E003E00300000000000000000000D5
:10226000000000000000FF7FFF7F0F001F003E0006
:102270007C00F800F000E001E003C007800F000FD1
:10228000001E003E007CFF7FFF7F0000000000007A
:1022900000000000FF078007800780078007800795
:1022A00080078007800780078007800780078007F6
:1022B00080078007800780078007800780078007E6
:1022C0008007FF07FF07000000780078003C003C13
:1022D000001E001E000F000F80078007C003C00310
:1022E000E001E001F000F000780078003C003C00E4
:1022F0001E001E000F000F0007000000F07FF0001E
:10230000F000F000F000F000F000F000F000F0004D
:10231000F000F000F000F000F000F000F000F0003D
:10232000F000F000F000F000F000F07FF07F00001F
:10233000C000C001C001E003E003F007F007780728
:10234000780F380F3C1E3C1E1E3C1E3C0F380F7889
:1023500007780000000000000000000000000000FE
:10236000000000000000000000000000000000006D
:10237000000000000000000000000000000000005D
:102380000000000000000000000000000000FFFF4F
:10239000FFFF000000000000F0000000000000004F
:1023A000000000000000000000000000000000002D
:1023B000000000000000000000000000000000001D
:1023C000000000000000000000000000000000000D
:1023D0000000000000000000F80FFC3F7C3C3E00C5
:1023E0003E003E00FE07FE1F3E3E3E7C3E783E7CA9
:1023F0007E7CFF3FCF1F00000000000000000000B7
:10240000003C003C003C003C003C003CF83DFE3FF2
:102410003E3F1F3E0F3C0F3C0F3C0F3C0F3C0F3C20
:102420001F3C1E3C3E3FFC3FF03B00000000000014
:10243000000000000000000000000000000000009C
:10244000FE03FF0F871F003E003E003C007C007C27
:10245000007C003C003E003E871FFF0FFE03000093
:1024600000000000000000001F001F001F001F00F0
:102470001F001F00FF07FF1F3F3E1F3C1F7C1F7CEC
:102480001F7C1F781F781F7C1F7C3F3C7F3EFF1FF7
:10249000DF0F00000000000000000000000000004E
:1024A0000000000000000000F803FC0F3E1F1E3E6D
:1024B0001F3C1F7CFF7FFF7F007C007C003C003EB8
:1024C000071FFF0FFE0300000000000000000000D7
:1024D000FF01E103C003C007C007C007FF7FFF7F04
:1024E000C007C007C007C007C007C007C007C007B4
:1024F000C007C007C007C007C007000000000000F9
:1025000000000000000000000000000000000000CB
:10251000EF07FF1F7F3E1F3C1F7C1F7C1F781F782B
:102520001F781F7C1F7C3F3C7F3EFF1FDF0F1E007C
:102530001E001E007C38F83F003C003C003C003C84
:10254000003C003CFC3DFE3F9E3F1F3F1F3E1F3CAA
:102550001F3C1F3C1F3C1F3C1F3C1F3C1F3C1F3CA3
:102560001F3C00000000000000000000F001F0012E
:102570000000000000000000E07FE07FE001E001DB
:10258000E001E001E001E001E001E001E001E00143
:10259000E001E001E0010000000000000000000098
:1025A000F800F8000000000000000000F83FF83FCD
:1025B000F800F800F800F800F800F800F800F8005B
:1025C000F800F800F800F800F800F800F800F00053
:1025D000F071E07F003C003C003C003C003C003CD3
:1025E0001F3C3E3C7C3CF83CF03DE03DC03FC03FE2
:1025F000E03FF03DF83C7C3C3E3C1F3C1F3C000073
:102600000000000000000000F07FF001F001F00188
:10261000F001F001F001F001F001F001F001F00132
:10262000F001F001F001F001F001F001F001F00122
:10263000F0010000000000000000000000000000A9
:1026400000000000000000009EF7FFFFFFFFFFFFFB
:10265000E7FBE7F9C7F1C7F1C7F1C7F1C7F1C7F168
:10266000C7F1C7F1C7F10000000000000000000042
:10267000000000000000000000000000FC3DFE3FE4
:102680009E3F1F3F1F3E1F3C1F3C1F3C1F3C1F3CEB
:102690001F3C1F3C1F3C1F3C1F3C00000000000073
:1026A000000000000000000000000000000000002A
:1026B000F007FC1F3E3E1F3C1F7C0F780F780F7801
:1026C0000F780F781F7C1F3C3E3EFC1FF007000078
:1026D00000000000000000000000000000000000FA
:1026E00000000000F83DFE3F3E3F1F3E0F3C0F3C08
:1026F0000F3C0F3C0F3C0F3C1F3C1E3E3E3FFC3F3F
:10270000F83F003C003C003C003C003C0000000066
:102710000000000000000000EE07FE1F7E3E1E3C91
:102720001E7C1E781E781E781E781E781E7C3E7CCD
:102730007E3EFE1FDE0F1E001E001E001E001E003D
:102740000000000000000000000000007F1FFF1FCD
:10275000E71FC71F871F001F001F001F001F001F4C
:10276000001F001F001F001F001F000000000000CE
:102770000000000000000000000000000000000059
:10278000FC07FE1F0E1E003E003E003FE01FFC0740
:10279000FE003E001E001E003E3CFC3FF01F0000FD
:1027A00000000000000000000000000000008007A2
:1027B00080078007FF7FFF7F8007800780078007F3
:1027C000800780078007800780078007C007FF0316
:1027D000FF010000000000000000000000000000F9
:1027E00000000000000000001E3C1E3C1E3C1E3C81
:1027F0001E3C1E3C1E3C1E3C1E3C1E3C3E3C7E3C89
:10280000FE3EFE1FDE0F0000000000000000000082
:1028100000000000000000000000000007F00F783A
:102820000F781E3C1E3C1E3E3C1E3C1E780F780F4F
:10283000F00FF007F007E003E003000000000000E5
:102840000000000000000000000000000000000088
:1028500003F0E3F1E3F3E7F3F7F3F7F3F77F777FC1
:102860007F7F7F7F7F7F3E3E3E3E3E3E3E3E00007E
:102870000000000000000000000000000000000058
:10288000000000000F7C1E3E3C3E3C1FF80FF0078E
:10289000F007E003F007F807F80F7C1E3E3E1F3CF0
:1028A0001F78000000000000000000000000000091
:1028B000000000000000000007F80F780F7C1E3CAD
:1028C0001E3C3C1E3C1E3C1F780FF80FF007F00723
:1028D000E003E003C003C003C0038007800F007F54
:1028E000000000000000000000000000FF3FFF3F6C
:1028F0001F003E007C00F800F001E003C007800FDD
:10290000001F001E003CFF7FFF7F00000000000052
:1029100000000000FE01E003C003C003C003C003C9
:10292000E001E001E001C001C003803F803FC0033F
:10293000C001E001E001E001C003C003C003C00327
:10294000E003FE017E000000C001C001C001C00123
:10295000C001C001C001C001C001C001C001C0016F
:10296000C001C001C001C001C001C001C001C0015F
:10297000C001C001C001C001C0010000C03FE003B0
:10298000E001E001E001E001C001C003C003C001BB
:10299000E001FE00FE00E001C001C003C003C00171
:1029A000E001E001E001E001E003C03F003F000082
:1029B0000000000000000000000000000000000017
:1029C000000000000000073FC77FE773FFF17EF0C3
:1029D00000000000000000000000000000000000F7
:1029E00000000000000000000000000001020304DD
:1029F0000607080900000000010203041C2A000861
:102A00000000002048000000BA150008642A0008F1
:102A10004800002058080000CA150008101A0000DD
:102A200098160008000000000000000743414C0019
:102A300000490000000049490000004949490000E0
:102A4000415652000041564C00004156460000439A
:102A50000000000001000000100000000000000065
:042A60000024F4005A
:04000005080000ED02
:00000001FF
